:1000000012C019C018C017C016C015C014C013C044
:1000100012C011C010C00FC00EC00DC00CC00BC06C
:100020000AC009C008C011241FBECFE5D4E0DEBF5E
:10003000CDBF06D02DC0E4CF18BA88E087BB0895A5
:10004000FBDF1ED082E383BD80E020E031E0811140
:1000500009C083B58F5F83BD93B5832F9F3F49F060
:10006000822F07C093B5915093BD93B5911101C0F4
:10007000822FEFE0F7E23197F1F700C00000E7CF01
:1000800012BC8EE685BD14BC13BC89B789BF089528
:04009000F894FFCF12
:00000001FF
