:1000000012C024C023C022C021C020C01FC01EC0F7
:100010001DC01CC01BC01AC019C018C017C016C014
:1000200015C014C013C011241FBECFE5D4E0DEBF3D
:10003000CDBF10E0A0E6B0E0E6E7F1E002C0059039
:100040000D92A637B107D9F785D093C0D9CF939A2F
:1000500095E89A95F1F7000092B39F7092BB92B326
:100060008295807F892B82BB939885E88A95F1F7EA
:1000700000000895CF93C82F611102C0929803C069
:10008000613009F4929A8C2F82958F70E0DF8C2F6B
:10009000DEDFCF91089561E0EDDF089590E4699F80
:1000A000800D112460E08068E5DF08958FE295E718
:1000B0000197F1F700C0000083E0C9DF8FE39FE103
:1000C0000197F1F700C0000083E0C1DF87EC90E00A
:1000D0000197F1F700C0000083E0B9DF8FEC97E0F3
:1000E0000197F1F700C0000082E0B1DF8FEC97E0EC
:1000F0000197F1F700C0000060E088E2BBDF8FEC01
:1001000097E00197F1F700C0000060E08CE0B2DFFB
:100110008FEC97E00197F1F700C0000060E086E007
:10012000A9DF8FEC97E00197F1F700C00000089578
:10013000CF93DF93EC018881882329F02196ABDFF0
:1001400089918111FCCFDF91CF91089512BA8FEF81
:1001500081BB0895FBDFAADF60E080E09FDF80E6DF
:1001600090E0E6DF61E080E099DF8DE690E0E0DF9F
:06017000FFCFF894FFCF61
:1001760048656C6C6F20576F726C64210053747203
:06018600696E67203200E3
:00000001FF
